{
  "_format": "hh-sol-artifact-1",
  "contractName": "MyEpicNFT",
  "sourceName": "contracts/MyEpicNFT.sol",
  "abi": [
    {
      "inputs": [],
      "stateMutability": "nonpayable",
      "type": "constructor"
    },
    {
      "anonymous": false,
      "inputs": [
        {
          "indexed": true,
          "internalType": "address",
          "name": "owner",
          "type": "address"
        },
        {
          "indexed": true,
          "internalType": "address",
          "name": "approved",
          "type": "address"
        },
        {
          "indexed": true,
          "internalType": "uint256",
          "name": "tokenId",
          "type": "uint256"
        }
      ],
      "name": "Approval",
      "type": "event"
    },
    {
      "anonymous": false,
      "inputs": [
        {
          "indexed": true,
          "internalType": "address",
          "name": "owner",
          "type": "address"
        },
        {
          "indexed": true,
          "internalType": "address",
          "name": "operator",
          "type": "address"
        },
        {
          "indexed": false,
          "internalType": "bool",
          "name": "approved",
          "type": "bool"
        }
      ],
      "name": "ApprovalForAll",
      "type": "event"
    },
    {
      "anonymous": false,
      "inputs": [
        {
          "indexed": false,
          "internalType": "address",
          "name": "sender",
          "type": "address"
        },
        {
          "indexed": false,
          "internalType": "uint256",
          "name": "tokenId",
          "type": "uint256"
        }
      ],
      "name": "NewEpicNFTMinted",
      "type": "event"
    },
    {
      "anonymous": false,
      "inputs": [
        {
          "indexed": true,
          "internalType": "address",
          "name": "from",
          "type": "address"
        },
        {
          "indexed": true,
          "internalType": "address",
          "name": "to",
          "type": "address"
        },
        {
          "indexed": true,
          "internalType": "uint256",
          "name": "tokenId",
          "type": "uint256"
        }
      ],
      "name": "Transfer",
      "type": "event"
    },
    {
      "inputs": [
        {
          "internalType": "address",
          "name": "to",
          "type": "address"
        },
        {
          "internalType": "uint256",
          "name": "tokenId",
          "type": "uint256"
        }
      ],
      "name": "approve",
      "outputs": [],
      "stateMutability": "nonpayable",
      "type": "function"
    },
    {
      "inputs": [
        {
          "internalType": "address",
          "name": "owner",
          "type": "address"
        }
      ],
      "name": "balanceOf",
      "outputs": [
        {
          "internalType": "uint256",
          "name": "",
          "type": "uint256"
        }
      ],
      "stateMutability": "view",
      "type": "function"
    },
    {
      "inputs": [
        {
          "internalType": "uint256",
          "name": "tokenId",
          "type": "uint256"
        }
      ],
      "name": "getApproved",
      "outputs": [
        {
          "internalType": "address",
          "name": "",
          "type": "address"
        }
      ],
      "stateMutability": "view",
      "type": "function"
    },
    {
      "inputs": [],
      "name": "getTotalNFTsMintedSoFar",
      "outputs": [
        {
          "internalType": "uint256",
          "name": "",
          "type": "uint256"
        }
      ],
      "stateMutability": "view",
      "type": "function"
    },
    {
      "inputs": [
        {
          "internalType": "address",
          "name": "owner",
          "type": "address"
        },
        {
          "internalType": "address",
          "name": "operator",
          "type": "address"
        }
      ],
      "name": "isApprovedForAll",
      "outputs": [
        {
          "internalType": "bool",
          "name": "",
          "type": "bool"
        }
      ],
      "stateMutability": "view",
      "type": "function"
    },
    {
      "inputs": [],
      "name": "makeAnEpicNFT",
      "outputs": [],
      "stateMutability": "nonpayable",
      "type": "function"
    },
    {
      "inputs": [],
      "name": "name",
      "outputs": [
        {
          "internalType": "string",
          "name": "",
          "type": "string"
        }
      ],
      "stateMutability": "view",
      "type": "function"
    },
    {
      "inputs": [
        {
          "internalType": "uint256",
          "name": "tokenId",
          "type": "uint256"
        }
      ],
      "name": "ownerOf",
      "outputs": [
        {
          "internalType": "address",
          "name": "",
          "type": "address"
        }
      ],
      "stateMutability": "view",
      "type": "function"
    },
    {
      "inputs": [
        {
          "internalType": "uint256",
          "name": "tokenId",
          "type": "uint256"
        }
      ],
      "name": "pickRandomFirstWord",
      "outputs": [
        {
          "internalType": "string",
          "name": "",
          "type": "string"
        }
      ],
      "stateMutability": "view",
      "type": "function"
    },
    {
      "inputs": [
        {
          "internalType": "uint256",
          "name": "tokenId",
          "type": "uint256"
        }
      ],
      "name": "pickRandomSecondWord",
      "outputs": [
        {
          "internalType": "string",
          "name": "",
          "type": "string"
        }
      ],
      "stateMutability": "view",
      "type": "function"
    },
    {
      "inputs": [
        {
          "internalType": "uint256",
          "name": "tokenId",
          "type": "uint256"
        }
      ],
      "name": "pickRandomThirdWord",
      "outputs": [
        {
          "internalType": "string",
          "name": "",
          "type": "string"
        }
      ],
      "stateMutability": "view",
      "type": "function"
    },
    {
      "inputs": [
        {
          "internalType": "address",
          "name": "from",
          "type": "address"
        },
        {
          "internalType": "address",
          "name": "to",
          "type": "address"
        },
        {
          "internalType": "uint256",
          "name": "tokenId",
          "type": "uint256"
        }
      ],
      "name": "safeTransferFrom",
      "outputs": [],
      "stateMutability": "nonpayable",
      "type": "function"
    },
    {
      "inputs": [
        {
          "internalType": "address",
          "name": "from",
          "type": "address"
        },
        {
          "internalType": "address",
          "name": "to",
          "type": "address"
        },
        {
          "internalType": "uint256",
          "name": "tokenId",
          "type": "uint256"
        },
        {
          "internalType": "bytes",
          "name": "_data",
          "type": "bytes"
        }
      ],
      "name": "safeTransferFrom",
      "outputs": [],
      "stateMutability": "nonpayable",
      "type": "function"
    },
    {
      "inputs": [
        {
          "internalType": "address",
          "name": "operator",
          "type": "address"
        },
        {
          "internalType": "bool",
          "name": "approved",
          "type": "bool"
        }
      ],
      "name": "setApprovalForAll",
      "outputs": [],
      "stateMutability": "nonpayable",
      "type": "function"
    },
    {
      "inputs": [
        {
          "internalType": "bytes4",
          "name": "interfaceId",
          "type": "bytes4"
        }
      ],
      "name": "supportsInterface",
      "outputs": [
        {
          "internalType": "bool",
          "name": "",
          "type": "bool"
        }
      ],
      "stateMutability": "view",
      "type": "function"
    },
    {
      "inputs": [],
      "name": "symbol",
      "outputs": [
        {
          "internalType": "string",
          "name": "",
          "type": "string"
        }
      ],
      "stateMutability": "view",
      "type": "function"
    },
    {
      "inputs": [
        {
          "internalType": "uint256",
          "name": "tokenId",
          "type": "uint256"
        }
      ],
      "name": "tokenURI",
      "outputs": [
        {
          "internalType": "string",
          "name": "",
          "type": "string"
        }
      ],
      "stateMutability": "view",
      "type": "function"
    },
    {
      "inputs": [
        {
          "internalType": "address",
          "name": "from",
          "type": "address"
        },
        {
          "internalType": "address",
          "name": "to",
          "type": "address"
        },
        {
          "internalType": "uint256",
          "name": "tokenId",
          "type": "uint256"
        }
      ],
      "name": "transferFrom",
      "outputs": [],
      "stateMutability": "nonpayable",
      "type": "function"
    }
  ],
  "bytecode": "0x6080604052600f600760006101000a81548160ff021916908360ff16021790555060405180610160016040528061012e81526020016200516161012e91396009908051906020019062000054929190620005f6565b5060405180610d000160405280610cde8152602001620052bc610cde9139600a908051906020019062000089929190620005f6565b5060405180610160016040528061012e81526020016200503361012e9139600b9080519060200190620000be929190620005f6565b5060405180610d000160405280610cdc815260200162004357610cdc9139600c9080519060200190620000f3929190620005f6565b5060405180604001604052806040518060400160405280600381526020017f526564000000000000000000000000000000000000000000000000000000000081525081526020016040518060400160405280600681526020017f59656c6c6f770000000000000000000000000000000000000000000000000000815250815250600d9060026200018592919062000687565b506040518060a001604052806040518060400160405280600981526020017f537061726b6c696e67000000000000000000000000000000000000000000000081525081526020016040518060400160405280600881526020017f466c617368696e6700000000000000000000000000000000000000000000000081525081526020016040518060400160405280600a81526020017f476c6974746572696e670000000000000000000000000000000000000000000081525081526020016040518060400160405280600781526020017f5368696e696e670000000000000000000000000000000000000000000000000081525081526020016040518060400160405280600981526020017f5477696e6b6c696e670000000000000000000000000000000000000000000000815250815250600e906005620002c8929190620006ee565b506040518060c001604052806040518060400160405280600781526020017f4469616d6f6e640000000000000000000000000000000000000000000000000081525081526020016040518060400160405280600581526020017f4a6577656c00000000000000000000000000000000000000000000000000000081525081526020016040518060400160405280600381526020017f47656d000000000000000000000000000000000000000000000000000000000081525081526020016040518060400160405280600481526020017f527562790000000000000000000000000000000000000000000000000000000081525081526020016040518060400160405280600781526020017f456d6572616c640000000000000000000000000000000000000000000000000081525081526020016040518060400160405280600a81526020017f53617070686972696e6500000000000000000000000000000000000000000000815250815250600f9060066200044692919062000755565b503480156200045457600080fd5b506040518060400160405280600981526020017f5371756172654e465400000000000000000000000000000000000000000000008152506040518060400160405280600681526020017f53515541524500000000000000000000000000000000000000000000000000008152508160009080519060200190620004d9929190620005f6565b508060019080519060200190620004f2929190620005f6565b505050620005246040518060600160405280602d81526020016200528f602d91396200052a60201b6200132e1760201c565b62000976565b620005ca816040516024016200054191906200088a565b6040516020818303038152906040527f41304fac000000000000000000000000000000000000000000000000000000007bffffffffffffffffffffffffffffffffffffffffffffffffffffffff19166020820180517bffffffffffffffffffffffffffffffffffffffffffffffffffffffff8381831617835250505050620005cd60201b60201c565b50565b60008151905060006a636f6e736f6c652e6c6f679050602083016000808483855afa5050505050565b828054620006049062000900565b90600052602060002090601f01602090048101928262000628576000855562000674565b82601f106200064357805160ff191683800117855562000674565b8280016001018555821562000674579182015b828111156200067357825182559160200191906001019062000656565b5b509050620006839190620007bc565b5090565b828054828255906000526020600020908101928215620006db579160200282015b82811115620006da578251829080519060200190620006c9929190620005f6565b5091602001919060010190620006a8565b5b509050620006ea9190620007db565b5090565b82805482825590600052602060002090810192821562000742579160200282015b828111156200074157825182908051906020019062000730929190620005f6565b50916020019190600101906200070f565b5b509050620007519190620007db565b5090565b828054828255906000526020600020908101928215620007a9579160200282015b82811115620007a857825182908051906020019062000797929190620005f6565b509160200191906001019062000776565b5b509050620007b89190620007db565b5090565b5b80821115620007d7576000816000905550600101620007bd565b5090565b5b80821115620007ff5760008181620007f5919062000803565b50600101620007dc565b5090565b508054620008119062000900565b6000825580601f1062000825575062000846565b601f016020900490600052602060002090810190620008459190620007bc565b5b50565b60006200085682620008ae565b620008628185620008b9565b935062000874818560208601620008ca565b6200087f8162000965565b840191505092915050565b60006020820190508181036000830152620008a6818462000849565b905092915050565b600081519050919050565b600082825260208201905092915050565b60005b83811015620008ea578082015181840152602081019050620008cd565b83811115620008fa576000848401525b50505050565b600060028204905060018216806200091957607f821691505b6020821081141562000930576200092f62000936565b5b50919050565b7f4e487b7100000000000000000000000000000000000000000000000000000000600052602260045260246000fd5b6000601f19601f8301169050919050565b6139d180620009866000396000f3fe608060405234801561001057600080fd5b50600436106101165760003560e01c806370a08231116100a2578063b88d4fde11610071578063b88d4fde14610305578063c575757a14610321578063c87b56dd14610351578063de9d132f14610381578063e985e9c51461038b57610116565b806370a082311461026b57806395d89b411461029b578063a22cb465146102b9578063b187301f146102d557610116565b8063095ea7b3116100e9578063095ea7b3146101b757806323b872dd146101d35780632de38d68146101ef57806342842e0e1461021f5780636352211e1461023b57610116565b806301ffc9a71461011b578063060475901461014b57806306fdde0314610169578063081812fc14610187575b600080fd5b610135600480360381019061013091906125c1565b6103bb565b6040516101429190613247565b60405180910390f35b61015361049d565b60405161016091906134c2565b60405180910390f35b6101716104ae565b60405161017e9190613262565b60405180910390f35b6101a1600480360381019061019c9190612613565b610540565b6040516101ae91906131b7565b60405180910390f35b6101d160048036038101906101cc9190612585565b6105c5565b005b6101ed60048036038101906101e8919061247f565b6106dd565b005b61020960048036038101906102049190612613565b61073d565b6040516102169190613262565b60405180910390f35b6102396004803603810190610234919061247f565b61085b565b005b61025560048036038101906102509190612613565b61087b565b60405161026291906131b7565b60405180910390f35b6102856004803603810190610280919061241a565b61092d565b60405161029291906134c2565b60405180910390f35b6102a36109e5565b6040516102b09190613262565b60405180910390f35b6102d360048036038101906102ce9190612549565b610a77565b005b6102ef60048036038101906102ea9190612613565b610bf8565b6040516102fc9190613262565b60405180910390f35b61031f600480360381019061031a91906124ce565b610d16565b005b61033b60048036038101906103369190612613565b610d78565b6040516103489190613262565b60405180910390f35b61036b60048036038101906103669190612613565b610e96565b6040516103789190613262565b60405180910390f35b610389610fe8565b005b6103a560048036038101906103a09190612443565b61129a565b6040516103b29190613247565b60405180910390f35b60007f80ac58cd000000000000000000000000000000000000000000000000000000007bffffffffffffffffffffffffffffffffffffffffffffffffffffffff1916827bffffffffffffffffffffffffffffffffffffffffffffffffffffffff1916148061048657507f5b5e139f000000000000000000000000000000000000000000000000000000007bffffffffffffffffffffffffffffffffffffffffffffffffffffffff1916827bffffffffffffffffffffffffffffffffffffffffffffffffffffffff1916145b806104965750610495826113c7565b5b9050919050565b60006104a96008611431565b905090565b6060600080546104bd90613761565b80601f01602080910402602001604051908101604052809291908181526020018280546104e990613761565b80156105365780601f1061050b57610100808354040283529160200191610536565b820191906000526020600020905b81548152906001019060200180831161051957829003601f168201915b5050505050905090565b600061054b8261143f565b61058a576040517f08c379a000000000000000000000000000000000000000000000000000000000815260040161058190613422565b60405180910390fd5b6004600083815260200190815260200160002060009054906101000a900473ffffffffffffffffffffffffffffffffffffffff169050919050565b60006105d08261087b565b90508073ffffffffffffffffffffffffffffffffffffffff168373ffffffffffffffffffffffffffffffffffffffff161415610641576040517f08c379a000000000000000000000000000000000000000000000000000000000815260040161063890613482565b60405180910390fd5b8073ffffffffffffffffffffffffffffffffffffffff166106606114ab565b73ffffffffffffffffffffffffffffffffffffffff16148061068f575061068e816106896114ab565b61129a565b5b6106ce576040517f08c379a00000000000000000000000000000000000000000000000000000000081526004016106c590613362565b60405180910390fd5b6106d883836114b3565b505050565b6106ee6106e86114ab565b8261156c565b61072d576040517f08c379a0000000000000000000000000000000000000000000000000000000008152600401610724906134a2565b60405180910390fd5b61073883838361164a565b505050565b6060600061077161074d846118a6565b60405160200161075d9190613173565b604051602081830303815290604052611a53565b9050600d805490508161078491906137dc565b9050600d81815481106107c0577f4e487b7100000000000000000000000000000000000000000000000000000000600052603260045260246000fd5b9060005260206000200180546107d590613761565b80601f016020809104026020016040519081016040528092919081815260200182805461080190613761565b801561084e5780601f106108235761010080835404028352916020019161084e565b820191906000526020600020905b81548152906001019060200180831161083157829003601f168201915b5050505050915050919050565b61087683838360405180602001604052806000815250610d16565b505050565b6000806002600084815260200190815260200160002060009054906101000a900473ffffffffffffffffffffffffffffffffffffffff169050600073ffffffffffffffffffffffffffffffffffffffff168173ffffffffffffffffffffffffffffffffffffffff161415610924576040517f08c379a000000000000000000000000000000000000000000000000000000000815260040161091b906133a2565b60405180910390fd5b80915050919050565b60008073ffffffffffffffffffffffffffffffffffffffff168273ffffffffffffffffffffffffffffffffffffffff16141561099e576040517f08c379a000000000000000000000000000000000000000000000000000000000815260040161099590613382565b60405180910390fd5b600360008373ffffffffffffffffffffffffffffffffffffffff1673ffffffffffffffffffffffffffffffffffffffff168152602001908152602001600020549050919050565b6060600180546109f490613761565b80601f0160208091040260200160405190810160405280929190818152602001828054610a2090613761565b8015610a6d5780601f10610a4257610100808354040283529160200191610a6d565b820191906000526020600020905b815481529060010190602001808311610a5057829003601f168201915b5050505050905090565b610a7f6114ab565b73ffffffffffffffffffffffffffffffffffffffff168273ffffffffffffffffffffffffffffffffffffffff161415610aed576040517f08c379a0000000000000000000000000000000000000000000000000000000008152600401610ae490613322565b60405180910390fd5b8060056000610afa6114ab565b73ffffffffffffffffffffffffffffffffffffffff1673ffffffffffffffffffffffffffffffffffffffff16815260200190815260200160002060008473ffffffffffffffffffffffffffffffffffffffff1673ffffffffffffffffffffffffffffffffffffffff16815260200190815260200160002060006101000a81548160ff0219169083151502179055508173ffffffffffffffffffffffffffffffffffffffff16610ba76114ab565b73ffffffffffffffffffffffffffffffffffffffff167f17307eab39ab6107e8899845ad3d59bd9653f200f220920489ca2b5937696c3183604051610bec9190613247565b60405180910390a35050565b60606000610c2c610c08846118a6565b604051602001610c18919061310c565b604051602081830303815290604052611a53565b9050600e8054905081610c3f91906137dc565b9050600e8181548110610c7b577f4e487b7100000000000000000000000000000000000000000000000000000000600052603260045260246000fd5b906000526020600020018054610c9090613761565b80601f0160208091040260200160405190810160405280929190818152602001828054610cbc90613761565b8015610d095780601f10610cde57610100808354040283529160200191610d09565b820191906000526020600020905b815481529060010190602001808311610cec57829003601f168201915b5050505050915050919050565b610d27610d216114ab565b8361156c565b610d66576040517f08c379a0000000000000000000000000000000000000000000000000000000008152600401610d5d906134a2565b60405180910390fd5b610d7284848484611a86565b50505050565b60606000610dac610d88846118a6565b604051602001610d9891906130ea565b604051602081830303815290604052611a53565b9050600f8054905081610dbf91906137dc565b9050600f8181548110610dfb577f4e487b7100000000000000000000000000000000000000000000000000000000600052603260045260246000fd5b906000526020600020018054610e1090613761565b80601f0160208091040260200160405190810160405280929190818152602001828054610e3c90613761565b8015610e895780601f10610e5e57610100808354040283529160200191610e89565b820191906000526020600020905b815481529060010190602001808311610e6c57829003601f168201915b5050505050915050919050565b6060610ea18261143f565b610ee0576040517f08c379a0000000000000000000000000000000000000000000000000000000008152600401610ed790613402565b60405180910390fd5b6000600660008481526020019081526020016000208054610f0090613761565b80601f0160208091040260200160405190810160405280929190818152602001828054610f2c90613761565b8015610f795780601f10610f4e57610100808354040283529160200191610f79565b820191906000526020600020905b815481529060010190602001808311610f5c57829003601f168201915b505050505090506000610f8a611ae2565b9050600081511415610fa0578192505050610fe3565b600082511115610fd5578082604051602001610fbd929190613028565b60405160208183030381529060405292505050610fe3565b610fde84611af9565b925050505b919050565b600760009054906101000a900460ff1660ff166110056008611431565b111561101057600080fd5b600061101c6008611431565b905060006110298261073d565b9050600061103683610bf8565b9050600061104384610d78565b9050600083838360405160200161105c9392919061304c565b604051602081830303815290604052905060606040518060400160405280600381526020017f526564000000000000000000000000000000000000000000000000000000000081525080519060200120858051906020012014156110eb576009858585600a6040516020016110d595949392919061307d565b6040516020818303038152906040529050611118565b600b858585600c60405160200161110695949392919061307d565b60405160208183030381529060405290505b600061114c8361112784611ba0565b60405160200161113892919061312e565b604051602081830303815290604052611ba0565b90506000816040516020016111619190613195565b60405160208183030381529060405290506111b06040518060400160405280601581526020017f0a2d2d2d2d2d2d2d2d2d2d2d2d2d2d2d2d2d2d2d2d000000000000000000000081525061132e565b6111d8816040516020016111c491906130c8565b60405160208183030381529060405261132e565b6112166040518060400160405280601581526020017f2d2d2d2d2d2d2d2d2d2d2d2d2d2d2d2d2d2d2d2d0a000000000000000000000081525061132e565b6112203389611d5e565b61122a8882611d7c565b61124d604051806060016040528060258152602001613937602591398933611df0565b6112576008611e8f565b7febb98688741ffa4c7589bf325de30cf7becb63de567842e1ccdb6cb949fdc82c338960405161128892919061321e565b60405180910390a15050505050505050565b6000600560008473ffffffffffffffffffffffffffffffffffffffff1673ffffffffffffffffffffffffffffffffffffffff16815260200190815260200160002060008373ffffffffffffffffffffffffffffffffffffffff1673ffffffffffffffffffffffffffffffffffffffff16815260200190815260200160002060009054906101000a900460ff16905092915050565b6113c4816040516024016113429190613262565b6040516020818303038152906040527f41304fac000000000000000000000000000000000000000000000000000000007bffffffffffffffffffffffffffffffffffffffffffffffffffffffff19166020820180517bffffffffffffffffffffffffffffffffffffffffffffffffffffffff8381831617835250505050611ea5565b50565b60007f01ffc9a7000000000000000000000000000000000000000000000000000000007bffffffffffffffffffffffffffffffffffffffffffffffffffffffff1916827bffffffffffffffffffffffffffffffffffffffffffffffffffffffff1916149050919050565b600081600001549050919050565b60008073ffffffffffffffffffffffffffffffffffffffff166002600084815260200190815260200160002060009054906101000a900473ffffffffffffffffffffffffffffffffffffffff1673ffffffffffffffffffffffffffffffffffffffff1614159050919050565b600033905090565b816004600083815260200190815260200160002060006101000a81548173ffffffffffffffffffffffffffffffffffffffff021916908373ffffffffffffffffffffffffffffffffffffffff160217905550808273ffffffffffffffffffffffffffffffffffffffff166115268361087b565b73ffffffffffffffffffffffffffffffffffffffff167f8c5be1e5ebec7d5bd14f71427d1e84f3dd0314c0f7b2291e5b200ac8c7c3b92560405160405180910390a45050565b60006115778261143f565b6115b6576040517f08c379a00000000000000000000000000000000000000000000000000000000081526004016115ad90613342565b60405180910390fd5b60006115c18361087b565b90508073ffffffffffffffffffffffffffffffffffffffff168473ffffffffffffffffffffffffffffffffffffffff16148061163057508373ffffffffffffffffffffffffffffffffffffffff1661161884610540565b73ffffffffffffffffffffffffffffffffffffffff16145b806116415750611640818561129a565b5b91505092915050565b8273ffffffffffffffffffffffffffffffffffffffff1661166a8261087b565b73ffffffffffffffffffffffffffffffffffffffff16146116c0576040517f08c379a00000000000000000000000000000000000000000000000000000000081526004016116b790613442565b60405180910390fd5b600073ffffffffffffffffffffffffffffffffffffffff168273ffffffffffffffffffffffffffffffffffffffff161415611730576040517f08c379a000000000000000000000000000000000000000000000000000000000815260040161172790613302565b60405180910390fd5b61173b838383611ece565b6117466000826114b3565b6001600360008573ffffffffffffffffffffffffffffffffffffffff1673ffffffffffffffffffffffffffffffffffffffff16815260200190815260200160002060008282546117969190613677565b925050819055506001600360008473ffffffffffffffffffffffffffffffffffffffff1673ffffffffffffffffffffffffffffffffffffffff16815260200190815260200160002060008282546117ed9190613596565b92505081905550816002600083815260200190815260200160002060006101000a81548173ffffffffffffffffffffffffffffffffffffffff021916908373ffffffffffffffffffffffffffffffffffffffff160217905550808273ffffffffffffffffffffffffffffffffffffffff168473ffffffffffffffffffffffffffffffffffffffff167fddf252ad1be2c89b69c2b068fc378daa952ba7f163c4a11628f55a4df523b3ef60405160405180910390a4505050565b606060008214156118ee576040518060400160405280600181526020017f30000000000000000000000000000000000000000000000000000000000000008152509050611a4e565b600082905060005b6000821461192057808061190990613793565b915050600a8261191991906135ec565b91506118f6565b60008167ffffffffffffffff811115611962577f4e487b7100000000000000000000000000000000000000000000000000000000600052604160045260246000fd5b6040519080825280601f01601f1916602001820160405280156119945781602001600182028036833780820191505090505b5090505b60008514611a47576001826119ad9190613677565b9150600a856119bc91906137dc565b60306119c89190613596565b60f81b818381518110611a04577f4e487b7100000000000000000000000000000000000000000000000000000000600052603260045260246000fd5b60200101907effffffffffffffffffffffffffffffffffffffffffffffffffffffffffffff1916908160001a905350600a85611a4091906135ec565b9450611998565b8093505050505b919050565b600081604051602001611a669190613011565b6040516020818303038152906040528051906020012060001c9050919050565b611a9184848461164a565b611a9d84848484611ed3565b611adc576040517f08c379a0000000000000000000000000000000000000000000000000000000008152600401611ad3906132c2565b60405180910390fd5b50505050565b606060405180602001604052806000815250905090565b6060611b048261143f565b611b43576040517f08c379a0000000000000000000000000000000000000000000000000000000008152600401611b3a90613462565b60405180910390fd5b6000611b4d611ae2565b90506000815111611b6d5760405180602001604052806000815250611b98565b80611b77846118a6565b604051602001611b88929190613028565b6040516020818303038152906040525b915050919050565b60606000825190506000811415611bc95760405180602001604052806000815250915050611d59565b60006003600283611bda9190613596565b611be491906135ec565b6004611bf0919061361d565b90506000602082611c019190613596565b67ffffffffffffffff811115611c40577f4e487b7100000000000000000000000000000000000000000000000000000000600052604160045260246000fd5b6040519080825280601f01601f191660200182016040528015611c725781602001600182028036833780820191505090505b509050600060405180606001604052806040815260200161395c604091399050600181016020830160005b86811015611d165760038101905062ffffff818a015116603f8160121c168401518060081b905060ff603f83600c1c1686015116810190508060081b905060ff603f8360061c1686015116810190508060081b905060ff603f831686015116810190508060e01b90508084526004840193505050611c9d565b506003860660018114611d305760028114611d4057611d4b565b613d3d60f01b6002830352611d4b565b603d60f81b60018303525b508484525050819450505050505b919050565b611d7882826040518060200160405280600081525061206a565b5050565b611d858261143f565b611dc4576040517f08c379a0000000000000000000000000000000000000000000000000000000008152600401611dbb906133c2565b60405180910390fd5b80600660008481526020019081526020016000209080519060200190611deb9291906122a6565b505050565b611e8a838383604051602401611e0893929190613284565b6040516020818303038152906040527fe3849f79000000000000000000000000000000000000000000000000000000007bffffffffffffffffffffffffffffffffffffffffffffffffffffffff19166020820180517bffffffffffffffffffffffffffffffffffffffffffffffffffffffff8381831617835250505050611ea5565b505050565b6001816000016000828254019250508190555050565b60008151905060006a636f6e736f6c652e6c6f679050602083016000808483855afa5050505050565b505050565b6000611ef48473ffffffffffffffffffffffffffffffffffffffff166120c5565b1561205d578373ffffffffffffffffffffffffffffffffffffffff1663150b7a02611f1d6114ab565b8786866040518563ffffffff1660e01b8152600401611f3f94939291906131d2565b602060405180830381600087803b158015611f5957600080fd5b505af1925050508015611f8a57506040513d601f19601f82011682018060405250810190611f8791906125ea565b60015b61200d573d8060008114611fba576040519150601f19603f3d011682016040523d82523d6000602084013e611fbf565b606091505b50600081511415612005576040517f08c379a0000000000000000000000000000000000000000000000000000000008152600401611ffc906132c2565b60405180910390fd5b805181602001fd5b63150b7a0260e01b7bffffffffffffffffffffffffffffffffffffffffffffffffffffffff1916817bffffffffffffffffffffffffffffffffffffffffffffffffffffffff191614915050612062565b600190505b949350505050565b61207483836120d8565b6120816000848484611ed3565b6120c0576040517f08c379a00000000000000000000000000000000000000000000000000000000081526004016120b7906132c2565b60405180910390fd5b505050565b600080823b905060008111915050919050565b600073ffffffffffffffffffffffffffffffffffffffff168273ffffffffffffffffffffffffffffffffffffffff161415612148576040517f08c379a000000000000000000000000000000000000000000000000000000000815260040161213f906133e2565b60405180910390fd5b6121518161143f565b15612191576040517f08c379a0000000000000000000000000000000000000000000000000000000008152600401612188906132e2565b60405180910390fd5b61219d60008383611ece565b6001600360008473ffffffffffffffffffffffffffffffffffffffff1673ffffffffffffffffffffffffffffffffffffffff16815260200190815260200160002060008282546121ed9190613596565b92505081905550816002600083815260200190815260200160002060006101000a81548173ffffffffffffffffffffffffffffffffffffffff021916908373ffffffffffffffffffffffffffffffffffffffff160217905550808273ffffffffffffffffffffffffffffffffffffffff16600073ffffffffffffffffffffffffffffffffffffffff167fddf252ad1be2c89b69c2b068fc378daa952ba7f163c4a11628f55a4df523b3ef60405160405180910390a45050565b8280546122b290613761565b90600052602060002090601f0160209004810192826122d4576000855561231b565b82601f106122ed57805160ff191683800117855561231b565b8280016001018555821561231b579182015b8281111561231a5782518255916020019190600101906122ff565b5b509050612328919061232c565b5090565b5b8082111561234557600081600090555060010161232d565b5090565b600061235c6123578461350e565b6134dd565b90508281526020810184848401111561237457600080fd5b61237f84828561371f565b509392505050565b600081359050612396816138da565b92915050565b6000813590506123ab816138f1565b92915050565b6000813590506123c081613908565b92915050565b6000815190506123d581613908565b92915050565b600082601f8301126123ec57600080fd5b81356123fc848260208601612349565b91505092915050565b6000813590506124148161391f565b92915050565b60006020828403121561242c57600080fd5b600061243a84828501612387565b91505092915050565b6000806040838503121561245657600080fd5b600061246485828601612387565b925050602061247585828601612387565b9150509250929050565b60008060006060848603121561249457600080fd5b60006124a286828701612387565b93505060206124b386828701612387565b92505060406124c486828701612405565b9150509250925092565b600080600080608085870312156124e457600080fd5b60006124f287828801612387565b945050602061250387828801612387565b935050604061251487828801612405565b925050606085013567ffffffffffffffff81111561253157600080fd5b61253d878288016123db565b91505092959194509250565b6000806040838503121561255c57600080fd5b600061256a85828601612387565b925050602061257b8582860161239c565b9150509250929050565b6000806040838503121561259857600080fd5b60006125a685828601612387565b92505060206125b785828601612405565b9150509250929050565b6000602082840312156125d357600080fd5b60006125e1848285016123b1565b91505092915050565b6000602082840312156125fc57600080fd5b600061260a848285016123c6565b91505092915050565b60006020828403121561262557600080fd5b600061263384828501612405565b91505092915050565b612645816136ab565b82525050565b612654816136bd565b82525050565b600061266582613553565b61266f8185613569565b935061267f81856020860161372e565b612688816138c9565b840191505092915050565b600061269e8261355e565b6126a8818561357a565b93506126b881856020860161372e565b6126c1816138c9565b840191505092915050565b60006126d78261355e565b6126e1818561358b565b93506126f181856020860161372e565b80840191505092915050565b6000815461270a81613761565b612714818661358b565b9450600182166000811461272f576001811461274057612773565b60ff19831686528186019350612773565b6127498561353e565b60005b8381101561276b5781548189015260018201915060208101905061274c565b838801955050505b50505092915050565b600061278960258361358b565b91507f68747470733a2f2f6e6674707265766965772e30786465762e636f6465732f3f60008301527f636f64653d0000000000000000000000000000000000000000000000000000006020830152602582019050919050565b60006127ef60328361357a565b91507f4552433732313a207472616e7366657220746f206e6f6e20455243373231526560008301527f63656976657220696d706c656d656e74657200000000000000000000000000006020830152604082019050919050565b6000612855601c8361357a565b91507f4552433732313a20746f6b656e20616c7265616479206d696e746564000000006000830152602082019050919050565b6000612895600a8361358b565b91507f54484952445f574f5244000000000000000000000000000000000000000000006000830152600a82019050919050565b60006128d560248361357a565b91507f4552433732313a207472616e7366657220746f20746865207a65726f2061646460008301527f72657373000000000000000000000000000000000000000000000000000000006020830152604082019050919050565b600061293b60198361357a565b91507f4552433732313a20617070726f766520746f2063616c6c6572000000000000006000830152602082019050919050565b600061297b60638361358b565b91507f222c20226465736372697074696f6e223a20224120686967686c79206163636c60008301527f61696d656420636f6c6c656374696f6e206f6620737175617265732e222c202260208301527f696d616765223a2022646174613a696d6167652f7376672b786d6c3b6261736560408301527f36342c00000000000000000000000000000000000000000000000000000000006060830152606382019050919050565b6000612a2d600b8361358b565b91507f5345434f4e445f574f52440000000000000000000000000000000000000000006000830152600b82019050919050565b6000612a6d602c8361357a565b91507f4552433732313a206f70657261746f7220717565727920666f72206e6f6e657860008301527f697374656e7420746f6b656e00000000000000000000000000000000000000006020830152604082019050919050565b6000612ad360388361357a565b91507f4552433732313a20617070726f76652063616c6c6572206973206e6f74206f7760008301527f6e6572206e6f7220617070726f76656420666f7220616c6c00000000000000006020830152604082019050919050565b6000612b39602a8361357a565b91507f4552433732313a2062616c616e636520717565727920666f7220746865207a6560008301527f726f2061646472657373000000000000000000000000000000000000000000006020830152604082019050919050565b6000612b9f60298361357a565b91507f4552433732313a206f776e657220717565727920666f72206e6f6e657869737460008301527f656e7420746f6b656e00000000000000000000000000000000000000000000006020830152604082019050919050565b6000612c05602e8361357a565b91507f45524337323155524953746f726167653a2055524920736574206f66206e6f6e60008301527f6578697374656e7420746f6b656e0000000000000000000000000000000000006020830152604082019050919050565b6000612c6b60028361358b565b91507f227d0000000000000000000000000000000000000000000000000000000000006000830152600282019050919050565b6000612cab60208361357a565b91507f4552433732313a206d696e7420746f20746865207a65726f20616464726573736000830152602082019050919050565b6000612ceb60318361357a565b91507f45524337323155524953746f726167653a2055524920717565727920666f722060008301527f6e6f6e6578697374656e7420746f6b656e0000000000000000000000000000006020830152604082019050919050565b6000612d51602c8361357a565b91507f4552433732313a20617070726f76656420717565727920666f72206e6f6e657860008301527f697374656e7420746f6b656e00000000000000000000000000000000000000006020830152604082019050919050565b6000612db760298361357a565b91507f4552433732313a207472616e73666572206f6620746f6b656e2074686174206960008301527f73206e6f74206f776e00000000000000000000000000000000000000000000006020830152604082019050919050565b6000612e1d602f8361357a565b91507f4552433732314d657461646174613a2055524920717565727920666f72206e6f60008301527f6e6578697374656e7420746f6b656e00000000000000000000000000000000006020830152604082019050919050565b6000612e83600a8361358b565b91507f7b226e616d65223a2022000000000000000000000000000000000000000000006000830152600a82019050919050565b6000612ec360218361357a565b91507f4552433732313a20617070726f76616c20746f2063757272656e74206f776e6560008301527f72000000000000000000000000000000000000000000000000000000000000006020830152604082019050919050565b6000612f29600a8361358b565b91507f46495253545f574f5244000000000000000000000000000000000000000000006000830152600a82019050919050565b6000612f69601d8361358b565b91507f646174613a6170706c69636174696f6e2f6a736f6e3b6261736536342c0000006000830152601d82019050919050565b6000612fa960318361357a565b91507f4552433732313a207472616e736665722063616c6c6572206973206e6f74206f60008301527f776e6572206e6f7220617070726f7665640000000000000000000000000000006020830152604082019050919050565b61300b81613715565b82525050565b600061301d82846126cc565b915081905092915050565b600061303482856126cc565b915061304082846126cc565b91508190509392505050565b600061305882866126cc565b915061306482856126cc565b915061307082846126cc565b9150819050949350505050565b600061308982886126fd565b915061309582876126cc565b91506130a182866126cc565b91506130ad82856126cc565b91506130b982846126fd565b91508190509695505050505050565b60006130d38261277c565b91506130df82846126cc565b915081905092915050565b60006130f582612888565b915061310182846126cc565b915081905092915050565b600061311782612a20565b915061312382846126cc565b915081905092915050565b600061313982612e76565b915061314582856126cc565b91506131508261296e565b915061315c82846126cc565b915061316782612c5e565b91508190509392505050565b600061317e82612f1c565b915061318a82846126cc565b915081905092915050565b60006131a082612f5c565b91506131ac82846126cc565b915081905092915050565b60006020820190506131cc600083018461263c565b92915050565b60006080820190506131e7600083018761263c565b6131f4602083018661263c565b6132016040830185613002565b8181036060830152613213818461265a565b905095945050505050565b6000604082019050613233600083018561263c565b6132406020830184613002565b9392505050565b600060208201905061325c600083018461264b565b92915050565b6000602082019050818103600083015261327c8184612693565b905092915050565b6000606082019050818103600083015261329e8186612693565b90506132ad6020830185613002565b6132ba604083018461263c565b949350505050565b600060208201905081810360008301526132db816127e2565b9050919050565b600060208201905081810360008301526132fb81612848565b9050919050565b6000602082019050818103600083015261331b816128c8565b9050919050565b6000602082019050818103600083015261333b8161292e565b9050919050565b6000602082019050818103600083015261335b81612a60565b9050919050565b6000602082019050818103600083015261337b81612ac6565b9050919050565b6000602082019050818103600083015261339b81612b2c565b9050919050565b600060208201905081810360008301526133bb81612b92565b9050919050565b600060208201905081810360008301526133db81612bf8565b9050919050565b600060208201905081810360008301526133fb81612c9e565b9050919050565b6000602082019050818103600083015261341b81612cde565b9050919050565b6000602082019050818103600083015261343b81612d44565b9050919050565b6000602082019050818103600083015261345b81612daa565b9050919050565b6000602082019050818103600083015261347b81612e10565b9050919050565b6000602082019050818103600083015261349b81612eb6565b9050919050565b600060208201905081810360008301526134bb81612f9c565b9050919050565b60006020820190506134d76000830184613002565b92915050565b6000604051905081810181811067ffffffffffffffff821117156135045761350361389a565b5b8060405250919050565b600067ffffffffffffffff8211156135295761352861389a565b5b601f19601f8301169050602081019050919050565b60008190508160005260206000209050919050565b600081519050919050565b600081519050919050565b600082825260208201905092915050565b600082825260208201905092915050565b600081905092915050565b60006135a182613715565b91506135ac83613715565b9250827fffffffffffffffffffffffffffffffffffffffffffffffffffffffffffffffff038211156135e1576135e061380d565b5b828201905092915050565b60006135f782613715565b915061360283613715565b9250826136125761361161383c565b5b828204905092915050565b600061362882613715565b915061363383613715565b9250817fffffffffffffffffffffffffffffffffffffffffffffffffffffffffffffffff048311821515161561366c5761366b61380d565b5b828202905092915050565b600061368282613715565b915061368d83613715565b9250828210156136a05761369f61380d565b5b828203905092915050565b60006136b6826136f5565b9050919050565b60008115159050919050565b60007fffffffff0000000000000000000000000000000000000000000000000000000082169050919050565b600073ffffffffffffffffffffffffffffffffffffffff82169050919050565b6000819050919050565b82818337600083830152505050565b60005b8381101561374c578082015181840152602081019050613731565b8381111561375b576000848401525b50505050565b6000600282049050600182168061377957607f821691505b6020821081141561378d5761378c61386b565b5b50919050565b600061379e82613715565b91507fffffffffffffffffffffffffffffffffffffffffffffffffffffffffffffffff8214156137d1576137d061380d565b5b600182019050919050565b60006137e782613715565b91506137f283613715565b9250826138025761380161383c565b5b828206905092915050565b7f4e487b7100000000000000000000000000000000000000000000000000000000600052601160045260246000fd5b7f4e487b7100000000000000000000000000000000000000000000000000000000600052601260045260246000fd5b7f4e487b7100000000000000000000000000000000000000000000000000000000600052602260045260246000fd5b7f4e487b7100000000000000000000000000000000000000000000000000000000600052604160045260246000fd5b6000601f19601f8301169050919050565b6138e3816136ab565b81146138ee57600080fd5b50565b6138fa816136bd565b811461390557600080fd5b50565b613911816136c9565b811461391c57600080fd5b50565b61392881613715565b811461393357600080fd5b5056fe416e204e465420772f20494420257320686173206265656e206d696e74656420746f2025734142434445464748494a4b4c4d4e4f505152535455565758595a6162636465666768696a6b6c6d6e6f707172737475767778797a303132333435363738392b2fa26469706673582212204347f2241023737950630f475e47e88e78cd20b7fb738592f60c4ef4a1082a1464736f6c634300080000333c2f746578743e3c7374796c653e2e7431207b2066696c6c3a20234646464541393b20616e696d6174696f6e3a20743120327320656173652d696e2d6f757420696e66696e6974653b207d202e7432207b2066696c6c3a20234536444639413b20616e696d6174696f6e3a20743220327320656173652d696e2d6f757420696e66696e6974653b207d202e7433207b2066696c6c3a20234646463332333b20616e696d6174696f6e3a20743320327320656173652d696e2d6f757420696e66696e6974653b207d202e7434207b2066696c6c3a20234646453330303b20616e696d6174696f6e3a20743420327320656173652d696e2d6f757420696e66696e6974653b207d202e7435207b2066696c6c3a20234646434534353b20616e696d6174696f6e3a20743520327320656173652d696e2d6f757420696e66696e6974653b207d202e7436207b2066696c6c3a20234642463436443b20616e696d6174696f6e3a20743620327320656173652d696e2d6f757420696e66696e6974653b207d202e7437207b2066696c6c3a20234642443134383b20616e696d6174696f6e3a20743720327320656173652d696e2d6f757420696e66696e6974653b207d202e7438207b2066696c6c3a20234632463031333b20616e696d6174696f6e3a20743820327320656173652d696e2d6f757420696e66696e6974653b207d202e7439207b2066696c6c3a20234645453434303b20616e696d6174696f6e3a20743920327320656173652d696e2d6f757420696e66696e6974653b207d20406b65796672616d6573207431207b203025207b2066696c6c3a2023464646454139207d20323025207b2066696c6c3a2023464646464533207d20343025207b2066696c6c3a2023464646454339207d20363025207b2066696c6c3a2023464646454139207d207d20406b65796672616d6573207432207b203525207b2066696c6c3a2023453644463941207d20323525207b2066696c6c3a2023463946364445207d20343525207b2066696c6c3a2023453644463941207d20363525207b2066696c6c3a2023453644463941207d207d20406b65796672616d6573207433207b20313025207b2066696c6c3a2023464646333233207d20333025207b2066696c6c3a2023464646424238207d20353025207b2066696c6c3a2023464646373735207d20373025207b2066696c6c3a2023464646333233207d207d20406b65796672616d6573207434207b20313525207b2066696c6c3a2023464645333030207d20333525207b2066696c6c3a2023464646364143207d20353525207b2066696c6c3a2023464645453630207d20373525207b2066696c6c3a2023464645333030207d207d20406b65796672616d6573207435207b20323025207b2066696c6c3a2023464643453435207d20343025207b2066696c6c3a2023464645313842207d20363025207b2066696c6c3a2023464643453435207d20383025207b2066696c6c3a2023464643453435207d207d20406b65796672616d6573207436207b20323525207b2066696c6c3a2023464246343644207d20343525207b2066696c6c3a2023464546414134207d20363525207b2066696c6c3a2023464246343644207d20383525207b2066696c6c3a2023464246343644207d207d20406b65796672616d6573207437207b20333025207b2066696c6c3a2023464244313438207d20353025207b2066696c6c3a2023464546304333207d20363025207b2066696c6c3a2023464545333844207d20393025207b2066696c6c3a2023464244313438207d207d20406b65796672616d6573207438207b20333525207b2066696c6c3a2023463246303133207d20353525207b2066696c6c3a2023464346424230207d20373525207b2066696c6c3a2023464346423642207d20393525207b2066696c6c3a2023463246303133207d207d20406b65796672616d6573207439207b20343025207b2066696c6c3a2023464545343430207d20363025207b2066696c6c3a2023464646364331207d20383025207b2066696c6c3a2023464645463838207d2031303025207b2066696c6c3a2023464545343430207d207d202e6231207b2066696c6c3a20234646464541393b20616e696d6174696f6e3a20623120327320656173652d696e2d6f757420696e66696e6974653b207d202e6232207b2066696c6c3a20234536444639413b20616e696d6174696f6e3a20623220327320656173652d696e2d6f757420696e66696e6974653b207d202e6233207b2066696c6c3a20234646463332333b20616e696d6174696f6e3a20623320327320656173652d696e2d6f757420696e66696e6974653b207d202e6234207b2066696c6c3a20234646453330303b20616e696d6174696f6e3a20623420327320656173652d696e2d6f757420696e66696e6974653b207d202e6235207b2066696c6c3a20234646434534353b20616e696d6174696f6e3a20623520327320656173652d696e2d6f757420696e66696e6974653b207d20406b65796672616d6573206231207b203025207b2066696c6c3a2023464646454139207d20323025207b2066696c6c3a2023464646464533207d20343025207b2066696c6c3a2023464646454339207d20363025207b2066696c6c3a2023464646454139207d207d20406b65796672616d6573206232207b203525207b2066696c6c3a2023453644463941207d20323525207b2066696c6c3a2023463946364445207d20343525207b2066696c6c3a2023453644463941207d20363525207b2066696c6c3a2023453644463941207d207d20406b65796672616d6573206233207b20313025207b2066696c6c3a2023464646333233207d20333025207b2066696c6c3a2023464646424238207d20353025207b2066696c6c3a2023464646373735207d20373025207b2066696c6c3a2023464646333233207d207d20406b65796672616d6573206234207b20313525207b2066696c6c3a2023464645333030207d20333525207b2066696c6c3a2023464646364143207d20353525207b2066696c6c3a2023464645453630207d20373525207b2066696c6c3a2023464645333030207d207d20406b65796672616d6573206235207b20323025207b2066696c6c3a2023464643453435207d20343025207b2066696c6c3a2023464645313842207d20363025207b2066696c6c3a2023464643453435207d20383025207b2066696c6c3a2023464643453435207d207d202e6f7665726c6179207b2066696c6c3a20236666663b206f7061636974793a202e313b20616e696d6174696f6e3a206f7665726c617920327320656173652d696e2d6f757420696e66696e6974653b207d20406b65796672616d6573206f7665726c6179207b20333025207b206f7061636974793a20303b2066696c6c3a20233030303b207d20353025207b206f7061636974793a202e313b207d20373025207b206f7061636974793a20303b207d207d203c2f7374796c653e203c673e203c706174682066696c6c3d27234646464541392720643d274d31302c31356835306c31302c31306c2d33352c33306c2d33352c2d33307a272f3e203c212d2d20546f7020736861706573202d2d3e203c7061746820636c6173733d2774312720643d274d302c32356831346c2d342c2d31307a272f3e203c7061746820636c6173733d2774322720643d274d31302c31356831316c2d372c31307a272f3e203c7061746820636c6173733d2774332720643d274d31342c32356831346c2d372c2d31307a272f3e203c7061746820636c6173733d2774342720643d274d32312c31356831346c2d372c31307a272f3e203c7061746820636c6173733d2774352720643d274d32382c32356831346c2d372c2d31307a272f3e203c7061746820636c6173733d2774362720643d274d33352c31356831346c2d372c31307a272f3e203c7061746820636c6173733d2774372720643d274d34322c32356831346c2d372c2d31307a272f3e203c7061746820636c6173733d2774382720643d274d34392c31356831316c2d342c31307a272f3e203c7061746820636c6173733d2774392720643d274d35362c32356831346c2d31302c2d31307a272f3e203c212d2d20426f74746f6d20736861706573202d2d3e203c7061746820636c6173733d2762312720643d274d302c32356831346c32312c33307a272f3e203c7061746820636c6173733d2762322720643d274d31342c32356831346c372c33307a272f3e203c7061746820636c6173733d2762332720643d274d32382c32356831346c2d372c33307a272f3e203c7061746820636c6173733d2762342720643d274d34322c32356831346c2d32312c33307a272f3e203c7061746820636c6173733d2762352720643d274d35362c32356831346c2d33352c33307a272f3e203c7061746820636c6173733d276f7665726c61792720643d274d31302c31356835306c31302c31306c2d33352c33306c2d33352c2d33307a272f3e203c2f673e203c2f7376673e3c73766720786d6c6e733d27687474703a2f2f7777772e77332e6f72672f323030302f73766727207072657365727665417370656374526174696f3d27784d696e594d696e206d656574272076696577426f783d27302030203730203730273e3c7374796c653e2e62617365207b2066696c6c3a20626c61636b3b20666f6e742d66616d696c793a20617269616c3b20666f6e742d73697a653a203470783b207d3c2f7374796c653e3c726563742077696474683d273130302527206865696768743d2731303025272066696c6c3d272346464639423627202f3e3c7465787420783d273530252720793d273130252720636c6173733d27626173652720646f6d696e616e742d626173656c696e653d276d6964646c652720746578742d616e63686f723d276d6964646c65273e3c73766720786d6c6e733d27687474703a2f2f7777772e77332e6f72672f323030302f73766727207072657365727665417370656374526174696f3d27784d696e594d696e206d656574272076696577426f783d27302030203730203730273e3c7374796c653e2e62617365207b2066696c6c3a2077686974653b20666f6e742d66616d696c793a20617269616c3b20666f6e742d73697a653a203470783b207d3c2f7374796c653e3c726563742077696474683d273130302527206865696768743d2731303025272066696c6c3d272333313036303027202f3e3c7465787420783d273530252720793d273130252720636c6173733d27626173652720646f6d696e616e742d626173656c696e653d276d6964646c652720746578742d616e63686f723d276d6964646c65273e54686973206973206d79204e465420636f6e74726163742e20576f6f6f6f686f6f6f6f6f6f6f6f6f6f6f2121213c2f746578743e3c7374796c653e2e7431207b2066696c6c3a20234142314630443b20616e696d6174696f6e3a20743120327320656173652d696e2d6f757420696e66696e6974653b207d202e7432207b2066696c6c3a20234635384438303b20616e696d6174696f6e3a20743220327320656173652d696e2d6f757420696e66696e6974653b207d202e7433207b2066696c6c3a20234631344533393b20616e696d6174696f6e3a20743320327320656173652d696e2d6f757420696e66696e6974653b207d202e7434207b2066696c6c3a20233934323831393b20616e696d6174696f6e3a20743420327320656173652d696e2d6f757420696e66696e6974653b207d202e7435207b2066696c6c3a20234635363635333b20616e696d6174696f6e3a20743520327320656173652d696e2d6f757420696e66696e6974653b207d202e7436207b2066696c6c3a20234430334432413b20616e696d6174696f6e3a20743620327320656173652d696e2d6f757420696e66696e6974653b207d202e7437207b2066696c6c3a20234635413239383b20616e696d6174696f6e3a20743720327320656173652d696e2d6f757420696e66696e6974653b207d202e7438207b2066696c6c3a20234635383937423b20616e696d6174696f6e3a20743820327320656173652d696e2d6f757420696e66696e6974653b207d202e7439207b2066696c6c3a20233744323131343b20616e696d6174696f6e3a20743920327320656173652d696e2d6f757420696e66696e6974653b207d20406b65796672616d6573207431207b203025207b2066696c6c3a2023414231463044207d20323025207b2066696c6c3a2023463836433541207d20343025207b2066696c6c3a2023354630303030207d20363025207b2066696c6c3a2023414231463044207d207d20406b65796672616d6573207432207b203525207b2066696c6c3a2023463538443830207d20323525207b2066696c6c3a2023464644414344207d20343525207b2066696c6c3a2023413934313334207d20363525207b2066696c6c3a2023463538443830207d207d20406b65796672616d6573207433207b20313025207b2066696c6c3a2023463134453339207d20333025207b2066696c6c3a2023464639423836207d20353025207b2066696c6c3a2023413530323030207d20373025207b2066696c6c3a2023463134453339207d207d20406b65796672616d6573207434207b20313525207b2066696c6c3a2023393432383139207d20333525207b2066696c6c3a2023453137353636207d20353525207b2066696c6c3a2023343830303030207d20373525207b2066696c6c3a2023393432383139207d207d20406b65796672616d6573207435207b20323025207b2066696c6c3a2023463536363533207d20343025207b2066696c6c3a2023464642334130207d20363025207b2066696c6c3a2023413931413037207d20383025207b2066696c6c3a2023463536363533207d207d20406b65796672616d6573207436207b20323525207b2066696c6c3a2023443033443241207d20343525207b2066696c6c3a2023464638413737207d20363525207b2066696c6c3a2023383430303030207d20383525207b2066696c6c3a2023443033443241207d207d20406b65796672616d6573207437207b20333025207b2066696c6c3a2023463541323938207d20353025207b2066696c6c3a2023464645464535207d20363025207b2066696c6c3a2023413935363443207d20393025207b2066696c6c3a2023463541323938207d207d20406b65796672616d6573207438207b20333525207b2066696c6c3a2023463538393742207d20353525207b2066696c6c3a2023464644364338207d20373525207b2066696c6c3a2023413933443246207d20393525207b2066696c6c3a2023463538393742207d207d20406b65796672616d6573207439207b20343025207b2066696c6c3a2023374432313134207d20363025207b2066696c6c3a2023434136453631207d20383025207b2066696c6c3a2023333130303030207d2031303025207b2066696c6c3a2023374432313134207d207d202e6231207b2066696c6c3a20234242333131453b20616e696d6174696f6e3a20623120327320656173652d696e2d6f757420696e66696e6974653b207d202e6232207b2066696c6c3a20234631363535333b20616e696d6174696f6e3a20623220327320656173652d696e2d6f757420696e66696e6974653b207d202e6233207b2066696c6c3a20234436333932343b20616e696d6174696f6e3a20623320327320656173652d696e2d6f757420696e66696e6974653b207d202e6234207b2066696c6c3a20234639383737383b20616e696d6174696f6e3a20623420327320656173652d696e2d6f757420696e66696e6974653b207d202e6235207b2066696c6c3a20233945323731373b20616e696d6174696f6e3a20623520327320656173652d696e2d6f757420696e66696e6974653b207d20406b65796672616d6573206231207b203025207b2066696c6c3a2023424233313145207d20323025207b2066696c6c3a2023464637453642207d20343025207b2066696c6c3a2023364630303030207d20363025207b2066696c6c3a2023424233313145207d207d20406b65796672616d6573206232207b20313025207b2066696c6c3a2023463136353533207d20333025207b2066696c6c3a2023464642324130207d20353025207b2066696c6c3a2023413531393037207d20373025207b2066696c6c3a2023463136353533207d207d20406b65796672616d6573206233207b20323025207b2066696c6c3a2023443633393234207d20343025207b2066696c6c3a2023464638363731207d20363025207b2066696c6c3a2023384130303030207d20383025207b2066696c6c3a2023443633393234207d207d20406b65796672616d6573206234207b20333025207b2066696c6c3a2023463938373738207d20353025207b2066696c6c3a2023464644344335207d20373025207b2066696c6c3a2023414433423243207d20393025207b2066696c6c3a2023463938373738207d207d20406b65796672616d6573206235207b20343025207b2066696c6c3a2023394532373137207d20363025207b2066696c6c3a2023454237343634207d20383025207b2066696c6c3a2023353230303030207d2031303025207b2066696c6c3a2023394532373137207d207d202e6f7665726c6179207b2066696c6c3a20236666663b206f7061636974793a202e313b20616e696d6174696f6e3a206f7665726c617920327320656173652d696e2d6f757420696e66696e6974653b207d20406b65796672616d6573206f7665726c6179207b20333025207b206f7061636974793a20303b2066696c6c3a20233030303b207d20353025207b206f7061636974793a202e313b207d20373025207b206f7061636974793a20303b207d207d203c2f7374796c653e203c673e203c706174682066696c6c3d27234538343232432720643d274d31302c31356835306c31302c31306c2d33352c33306c2d33352c2d33307a272f3e203c212d2d20546f7020736861706573202d2d3e203c7061746820636c6173733d2774312720643d274d302c32356831346c2d342c2d31307a272f3e203c7061746820636c6173733d2774322720643d274d31302c31356831316c2d372c31307a272f3e203c7061746820636c6173733d2774332720643d274d31342c32356831346c2d372c2d31307a272f3e203c7061746820636c6173733d2774342720643d274d32312c31356831346c2d372c31307a272f3e203c7061746820636c6173733d2774352720643d274d32382c32356831346c2d372c2d31307a272f3e203c7061746820636c6173733d2774362720643d274d33352c31356831346c2d372c31307a272f3e203c7061746820636c6173733d2774372720643d274d34322c32356831346c2d372c2d31307a272f3e203c7061746820636c6173733d2774382720643d274d34392c31356831316c2d342c31307a272f3e203c7061746820636c6173733d2774392720643d274d35362c32356831346c2d31302c2d31307a272f3e203c212d2d20426f74746f6d20736861706573202d2d3e203c7061746820636c6173733d2762312720643d274d302c32356831346c32312c33307a272f3e203c7061746820636c6173733d2762322720643d274d31342c32356831346c372c33307a272f3e203c7061746820636c6173733d2762332720643d274d32382c32356831346c2d372c33307a272f3e203c7061746820636c6173733d2762342720643d274d34322c32356831346c2d32312c33307a272f3e203c7061746820636c6173733d2762352720643d274d35362c32356831346c2d33352c33307a272f3e203c7061746820636c6173733d276f7665726c61792720643d274d31302c31356835306c31302c31306c2d33352c33306c2d33352c2d33307a272f3e203c2f673e203c2f7376673e",
  "linkReferences": {},
  "deployedLinkReferences": {}
}